{
  "contractName": "Signit2",
  "abi": [
    {
      "inputs": [],
      "payable": false,
      "stateMutability": "nonpayable",
      "type": "constructor"
    },
    {
      "anonymous": false,
      "inputs": [
        {
          "indexed": true,
          "internalType": "address",
          "name": "sender",
          "type": "address"
        },
        {
          "indexed": true,
          "internalType": "address",
          "name": "signer",
          "type": "address"
        },
        {
          "indexed": false,
          "internalType": "string",
          "name": "contractHash",
          "type": "string"
        }
      ],
      "name": "NewContract",
      "type": "event"
    },
    {
      "constant": true,
      "inputs": [],
      "name": "admin",
      "outputs": [
        {
          "internalType": "address",
          "name": "",
          "type": "address"
        }
      ],
      "payable": false,
      "stateMutability": "view",
      "type": "function"
    },
    {
      "constant": true,
      "inputs": [],
      "name": "numOfContracts",
      "outputs": [
        {
          "internalType": "uint256",
          "name": "",
          "type": "uint256"
        }
      ],
      "payable": false,
      "stateMutability": "view",
      "type": "function"
    },
    {
      "constant": false,
      "inputs": [
        {
          "internalType": "address",
          "name": "signer",
          "type": "address"
        },
        {
          "internalType": "string",
          "name": "contractHash",
          "type": "string"
        },
        {
          "internalType": "string",
          "name": "senderSignature",
          "type": "string"
        }
      ],
      "name": "newContract",
      "outputs": [],
      "payable": true,
      "stateMutability": "payable",
      "type": "function"
    },
    {
      "constant": true,
      "inputs": [
        {
          "internalType": "string",
          "name": "contractHash",
          "type": "string"
        }
      ],
      "name": "getContractSenderSignature",
      "outputs": [
        {
          "internalType": "string",
          "name": "",
          "type": "string"
        }
      ],
      "payable": false,
      "stateMutability": "view",
      "type": "function"
    },
    {
      "constant": true,
      "inputs": [
        {
          "internalType": "string",
          "name": "contractHash",
          "type": "string"
        }
      ],
      "name": "getContractSender",
      "outputs": [
        {
          "internalType": "address",
          "name": "",
          "type": "address"
        }
      ],
      "payable": false,
      "stateMutability": "view",
      "type": "function"
    },
    {
      "constant": true,
      "inputs": [
        {
          "internalType": "string",
          "name": "contractHash",
          "type": "string"
        }
      ],
      "name": "getContractSigner",
      "outputs": [
        {
          "internalType": "address",
          "name": "",
          "type": "address"
        }
      ],
      "payable": false,
      "stateMutability": "view",
      "type": "function"
    },
    {
      "constant": true,
      "inputs": [
        {
          "internalType": "string",
          "name": "contractHash",
          "type": "string"
        }
      ],
      "name": "getContractSignerSignature",
      "outputs": [
        {
          "internalType": "string",
          "name": "",
          "type": "string"
        }
      ],
      "payable": false,
      "stateMutability": "view",
      "type": "function"
    },
    {
      "constant": false,
      "inputs": [
        {
          "internalType": "string",
          "name": "contractHash",
          "type": "string"
        },
        {
          "internalType": "string",
          "name": "signerSignature",
          "type": "string"
        }
      ],
      "name": "signContract",
      "outputs": [],
      "payable": false,
      "stateMutability": "nonpayable",
      "type": "function"
    },
    {
      "constant": true,
      "inputs": [],
      "name": "getAdmin",
      "outputs": [
        {
          "internalType": "address",
          "name": "",
          "type": "address"
        }
      ],
      "payable": false,
      "stateMutability": "view",
      "type": "function"
    },
    {
      "constant": true,
      "inputs": [],
      "name": "getContractCount",
      "outputs": [
        {
          "internalType": "uint256",
          "name": "",
          "type": "uint256"
        }
      ],
      "payable": false,
      "stateMutability": "view",
      "type": "function"
    }
  ],
  "bytecode": "0x6080604052600060025534801561001557600080fd5b50336000806101000a81548173ffffffffffffffffffffffffffffffffffffffff021916908373ffffffffffffffffffffffffffffffffffffffff1602179055506110ed806100656000396000f3fe6080604052600436106100915760003560e01c80639399869d116100595780639399869d146104f9578063d8b20e4914610524578063e87c0def14610696578063f851a4401461079e578063fd8773f4146107f557610091565b806337a8a93114610096578063468b08a8146101d7578063638725c71461031857806363f5adb5146104775780636e9960c3146104a2575b600080fd5b3480156100a257600080fd5b5061015c600480360360208110156100b957600080fd5b81019080803590602001906401000000008111156100d657600080fd5b8201836020820111156100e857600080fd5b8035906020019184600183028401116401000000008311171561010a57600080fd5b91908080601f016020809104026020016040519081016040528093929190818152602001838380828437600081840152601f19601f8201169050808301925050505050505091929192905050506108fd565b6040518080602001828103825283818151815260200191508051906020019080838360005b8381101561019c578082015181840152602081019050610181565b50505050905090810190601f1680156101c95780820380516001836020036101000a031916815260200191505b509250505060405180910390f35b3480156101e357600080fd5b5061029d600480360360208110156101fa57600080fd5b810190808035906020019064010000000081111561021757600080fd5b82018360208201111561022957600080fd5b8035906020019184600183028401116401000000008311171561024b57600080fd5b91908080601f016020809104026020016040519081016040528093929190818152602001838380828437600081840152601f19601f820116905080830192505050505050509192919290505050610a0b565b6040518080602001828103825283818151815260200191508051906020019080838360005b838110156102dd5780820151818401526020810190506102c2565b50505050905090810190601f16801561030a5780820380516001836020036101000a031916815260200191505b509250505060405180910390f35b34801561032457600080fd5b506104756004803603604081101561033b57600080fd5b810190808035906020019064010000000081111561035857600080fd5b82018360208201111561036a57600080fd5b8035906020019184600183028401116401000000008311171561038c57600080fd5b91908080601f016020809104026020016040519081016040528093929190818152602001838380828437600081840152601f19601f820116905080830192505050505050509192919290803590602001906401000000008111156103ef57600080fd5b82018360208201111561040157600080fd5b8035906020019184600183028401116401000000008311171561042357600080fd5b91908080601f016020809104026020016040519081016040528093929190818152602001838380828437600081840152601f19601f820116905080830192505050505050509192919290505050610b19565b005b34801561048357600080fd5b5061048c610b9e565b6040518082815260200191505060405180910390f35b3480156104ae57600080fd5b506104b7610ba4565b604051808273ffffffffffffffffffffffffffffffffffffffff1673ffffffffffffffffffffffffffffffffffffffff16815260200191505060405180910390f35b34801561050557600080fd5b5061050e610bcd565b6040518082815260200191505060405180910390f35b6106946004803603606081101561053a57600080fd5b81019080803573ffffffffffffffffffffffffffffffffffffffff1690602001909291908035906020019064010000000081111561057757600080fd5b82018360208201111561058957600080fd5b803590602001918460018302840111640100000000831117156105ab57600080fd5b91908080601f016020809104026020016040519081016040528093929190818152602001838380828437600081840152601f19601f8201169050808301925050505050505091929192908035906020019064010000000081111561060e57600080fd5b82018360208201111561062057600080fd5b8035906020019184600183028401116401000000008311171561064257600080fd5b91908080601f016020809104026020016040519081016040528093929190818152602001838380828437600081840152601f19601f820116905080830192505050505050509192919290505050610bd7565b005b3480156106a257600080fd5b5061075c600480360360208110156106b957600080fd5b81019080803590602001906401000000008111156106d657600080fd5b8201836020820111156106e857600080fd5b8035906020019184600183028401116401000000008311171561070a57600080fd5b91908080601f016020809104026020016040519081016040528093929190818152602001838380828437600081840152601f19601f820116905080830192505050505050509192919290505050610e42565b604051808273ffffffffffffffffffffffffffffffffffffffff1673ffffffffffffffffffffffffffffffffffffffff16815260200191505060405180910390f35b3480156107aa57600080fd5b506107b3610ed8565b604051808273ffffffffffffffffffffffffffffffffffffffff1673ffffffffffffffffffffffffffffffffffffffff16815260200191505060405180910390f35b34801561080157600080fd5b506108bb6004803603602081101561081857600080fd5b810190808035906020019064010000000081111561083557600080fd5b82018360208201111561084757600080fd5b8035906020019184600183028401116401000000008311171561086957600080fd5b91908080601f016020809104026020016040519081016040528093929190818152602001838380828437600081840152601f19601f820116905080830192505050505050509192919290505050610efd565b604051808273ffffffffffffffffffffffffffffffffffffffff1673ffffffffffffffffffffffffffffffffffffffff16815260200191505060405180910390f35b60606001826040518082805190602001908083835b602083106109355780518252602082019150602081019050602083039250610912565b6001836020036101000a03801982511681845116808217855250505050505090500191505090815260200160405180910390206002018054600181600116156101000203166002900480601f0160208091040260200160405190810160405280929190818152602001828054600181600116156101000203166002900480156109ff5780601f106109d4576101008083540402835291602001916109ff565b820191906000526020600020905b8154815290600101906020018083116109e257829003601f168201915b50505050509050919050565b60606001826040518082805190602001908083835b60208310610a435780518252602082019150602081019050602083039250610a20565b6001836020036101000a03801982511681845116808217855250505050505090500191505090815260200160405180910390206003018054600181600116156101000203166002900480601f016020809104026020016040519081016040528092919081815260200182805460018160011615610100020316600290048015610b0d5780601f10610ae257610100808354040283529160200191610b0d565b820191906000526020600020905b815481529060010190602001808311610af057829003601f168201915b50505050509050919050565b806001836040518082805190602001908083835b60208310610b505780518252602082019150602081019050602083039250610b2d565b6001836020036101000a03801982511681845116808217855250505050505090500191505090815260200160405180910390206003019080519060200190610b99929190610f93565b505050565b60025481565b60008060009054906101000a900473ffffffffffffffffffffffffffffffffffffffff16905090565b6000600254905090565b60405180608001604052803373ffffffffffffffffffffffffffffffffffffffff1681526020018473ffffffffffffffffffffffffffffffffffffffff168152602001828152602001604051806020016040528060008152508152506001836040518082805190602001908083835b60208310610c695780518252602082019150602081019050602083039250610c46565b6001836020036101000a038019825116818451168082178552505050505050905001915050908152602001604051809103902060008201518160000160006101000a81548173ffffffffffffffffffffffffffffffffffffffff021916908373ffffffffffffffffffffffffffffffffffffffff16021790555060208201518160010160006101000a81548173ffffffffffffffffffffffffffffffffffffffff021916908373ffffffffffffffffffffffffffffffffffffffff1602179055506040820151816002019080519060200190610d46929190611013565b506060820151816003019080519060200190610d63929190611013565b509050506001600254016002819055508273ffffffffffffffffffffffffffffffffffffffff163373ffffffffffffffffffffffffffffffffffffffff167f19e4b92ea0e90506d230b316dac4c71c8407d4b296944c084c41d07b559bb91c846040518080602001828103825283818151815260200191508051906020019080838360005b83811015610e03578082015181840152602081019050610de8565b50505050905090810190601f168015610e305780820380516001836020036101000a031916815260200191505b509250505060405180910390a3505050565b60006001826040518082805190602001908083835b60208310610e7a5780518252602082019150602081019050602083039250610e57565b6001836020036101000a038019825116818451168082178552505050505050905001915050908152602001604051809103902060000160009054906101000a900473ffffffffffffffffffffffffffffffffffffffff169050919050565b6000809054906101000a900473ffffffffffffffffffffffffffffffffffffffff1681565b60006001826040518082805190602001908083835b60208310610f355780518252602082019150602081019050602083039250610f12565b6001836020036101000a038019825116818451168082178552505050505050905001915050908152602001604051809103902060010160009054906101000a900473ffffffffffffffffffffffffffffffffffffffff169050919050565b828054600181600116156101000203166002900490600052602060002090601f016020900481019282601f10610fd457805160ff1916838001178555611002565b82800160010185558215611002579182015b82811115611001578251825591602001919060010190610fe6565b5b50905061100f9190611093565b5090565b828054600181600116156101000203166002900490600052602060002090601f016020900481019282601f1061105457805160ff1916838001178555611082565b82800160010185558215611082579182015b82811115611081578251825591602001919060010190611066565b5b50905061108f9190611093565b5090565b6110b591905b808211156110b1576000816000905550600101611099565b5090565b9056fea265627a7a72315820a68fd29e6526f5717fb18eb9faeb3ee4fd58c01424ff09ac7cb05daf2280a59e64736f6c63430005100032",
  "source": "pragma solidity >=0.5.5 <0.6.0;\r\n\r\ncontract Signit2{\r\n    address public admin;\r\n\r\n    struct Contract {\r\n        address sender;\r\n        address signer;\r\n        string senderSignature;\r\n        string signerSignature;\r\n    }\r\n\r\n    mapping (string => Contract) allContracts;\r\n    uint public numOfContracts = 0;\r\n    \r\n    constructor() public{\r\n        admin = msg.sender;\r\n    }\r\n\t\r\n    modifier onlyAdmin(){\r\n        require(admin == msg.sender, \"仅管理员可操作\");\r\n        _;\r\n    }\r\n\t\r\n    event NewContract(address indexed sender, address indexed signer, string contractHash);\r\n    \r\n    function newContract(address signer,  string memory contractHash, string memory senderSignature)public payable{\r\n        allContracts[contractHash] = Contract(msg.sender, signer, senderSignature, \"\");\r\n        numOfContracts = numOfContracts + 1;\r\n\t\temit NewContract (msg.sender, signer, contractHash);\r\n    }\r\n\r\n    function getContractSenderSignature(string memory contractHash)public view returns (string memory){\r\n        return allContracts[contractHash].senderSignature;\r\n    }\r\n\r\n    function getContractSender(string memory contractHash)public view returns (address){\r\n        return allContracts[contractHash].sender;\r\n    }\r\n\r\n    function getContractSigner(string memory contractHash)public view returns (address){\r\n        return allContracts[contractHash].signer;\r\n    }\r\n\r\n    function getContractSignerSignature(string memory contractHash)public view returns (string memory){\r\n        return allContracts[contractHash].signerSignature;\r\n    }\r\n\r\n    function signContract(string memory contractHash, string memory signerSignature)public{\r\n      allContracts[contractHash].signerSignature = signerSignature;\r\n    }\r\n\t\r\n    function getAdmin() public view returns(address){\r\n        return admin;\r\n    }\r\n\r\n    function getContractCount() public view returns(uint){\r\n        return numOfContracts;\r\n    }\r\n}",
  "sourcePath": "C:\\Users\\goinhn\\Desktop\\ethContract\\src\\main\\webapp\\eth\\contracts\\Signit2.sol",
  "compiler": {
    "name": "solc",
    "version": "0.5.16+commit.9c3226ce.Emscripten.clang"
  },
  "schemaVersion": "3.0.23",
  "updatedAt": "2020-02-26T08:18:14.670Z",
  "networkType": "ethereum",
  "devdoc": {
    "methods": {}
  },
  "userdoc": {
    "methods": {}
  }
}